:100000000C9434000C943E000C943E000C94400080
:100010000C943E000C943E000C943E000C943E0068
:100020000C943E000C943E000C943E000C943E0058
:100030000C943E000C943E000C943E000C943E0048
:100040000C943E000C943E000C943E000C943E0038
:100050000C943E000C943E000C943E000C943E0028
:100060000C943E000C943E0011241FBECFEFD8E04C
:10007000DEBFCDBF0E9451000C9460000C940000C4
:100080001F920F920FB60F921124189B03C02D9848
:10009000299A02C02D9A29980F900FBE0F901F9099
:1000A00018958091680081608093680080916B0052
:1000B000816080936B00259A219A289A7894FFCFCB
:0400C000F894FFCFE2
:00000001FF
